{"abi":[{"type":"function","name":"add","inputs":[{"name":"a","type":"uint256","internalType":"uint256"},{"name":"b","type":"uint256","internalType":"uint256"}],"outputs":[{"name":"","type":"uint256","internalType":"uint256"}],"stateMutability":"pure"},{"type":"function","name":"divide","inputs":[{"name":"a","type":"uint256","internalType":"uint256"},{"name":"b","type":"uint256","internalType":"uint256"}],"outputs":[{"name":"","type":"uint256","internalType":"uint256"}],"stateMutability":"pure"},{"type":"function","name":"initialize","inputs":[],"outputs":[],"stateMutability":"nonpayable"},{"type":"function","name":"mod","inputs":[{"name":"a","type":"uint256","internalType":"uint256"},{"name":"b","type":"uint256","internalType":"uint256"}],"outputs":[{"name":"","type":"uint256","internalType":"uint256"}],"stateMutability":"pure"},{"type":"function","name":"multiply","inputs":[{"name":"a","type":"uint256","internalType":"uint256"},{"name":"b","type":"uint256","internalType":"uint256"}],"outputs":[{"name":"","type":"uint256","internalType":"uint256"}],"stateMutability":"pure"},{"type":"function","name":"subtract","inputs":[{"name":"a","type":"uint256","internalType":"uint256"},{"name":"b","type":"uint256","internalType":"uint256"}],"outputs":[{"name":"","type":"uint256","internalType":"uint256"}],"stateMutability":"pure"},{"type":"event","name":"Initialized","inputs":[{"name":"version","type":"uint64","indexed":false,"internalType":"uint64"}],"anonymous":false},{"type":"error","name":"InvalidInitialization","inputs":[]},{"type":"error","name":"NotInitializing","inputs":[]}],"bytecode":{"object":"0x608060405234801561001057600080fd5b506102ad806100206000396000f3fe608060405234801561001057600080fd5b50600436106100625760003560e01c8063165c4a16146100675780633ef5e4451461008c578063771602f71461009f5780638129fc1c146100b2578063f43f523a146100b4578063f88e9fbf146100c7575b600080fd5b61007a6100753660046101c4565b6100da565b60405190815260200160405180910390f35b61007a61009a3660046101c4565b6100ef565b61007a6100ad3660046101c4565b6100fb565b005b61007a6100c23660046101c4565b610107565b61007a6100d53660046101c4565b610168565b60006100e682846101fc565b90505b92915050565b60006100e68284610213565b60006100e68284610226565b60008160000361015e5760405162461bcd60e51b815260206004820152601e60248201527f43616c63756c61746f7256323a206469766973696f6e206279207a65726f000060448201526064015b60405180910390fd5b6100e6828461024f565b6000816000036101ba5760405162461bcd60e51b815260206004820152601c60248201527f43616c63756c61746f723a206469766973696f6e206279207a65726f000000006044820152606401610155565b6100e68284610263565b600080604083850312156101d757600080fd5b50508035926020909101359150565b634e487b7160e01b600052601160045260246000fd5b80820281158282048414176100e9576100e96101e6565b818103818111156100e9576100e96101e6565b808201808211156100e9576100e96101e6565b634e487b7160e01b600052601260045260246000fd5b60008261025e5761025e610239565b500690565b60008261027257610272610239565b50049056fea2646970667358221220887fa4309d709f94a530c9c93d0240f88fc1d1b2d3bb59a16ffd5a571d28149c64736f6c63430008140033","linkReferences":{}},"methodIdentifiers":{"add(uint256,uint256)":"771602f7","divide(uint256,uint256)":"f88e9fbf","initialize()":"8129fc1c","mod(uint256,uint256)":"f43f523a","multiply(uint256,uint256)":"165c4a16","subtract(uint256,uint256)":"3ef5e445"},"id":33}