{"abi":[{"type":"function","name":"add","inputs":[{"name":"a","type":"uint256","internalType":"uint256"},{"name":"b","type":"uint256","internalType":"uint256"}],"outputs":[{"name":"","type":"uint256","internalType":"uint256"}],"stateMutability":"pure"},{"type":"function","name":"divide","inputs":[{"name":"a","type":"uint256","internalType":"uint256"},{"name":"b","type":"uint256","internalType":"uint256"}],"outputs":[{"name":"","type":"uint256","internalType":"uint256"}],"stateMutability":"pure"},{"type":"function","name":"initialize","inputs":[],"outputs":[],"stateMutability":"nonpayable"},{"type":"function","name":"multiply","inputs":[{"name":"a","type":"uint256","internalType":"uint256"},{"name":"b","type":"uint256","internalType":"uint256"}],"outputs":[{"name":"","type":"uint256","internalType":"uint256"}],"stateMutability":"pure"},{"type":"function","name":"subtract","inputs":[{"name":"a","type":"uint256","internalType":"uint256"},{"name":"b","type":"uint256","internalType":"uint256"}],"outputs":[{"name":"","type":"uint256","internalType":"uint256"}],"stateMutability":"pure"},{"type":"event","name":"Initialized","inputs":[{"name":"version","type":"uint64","indexed":false,"internalType":"uint64"}],"anonymous":false},{"type":"error","name":"InvalidInitialization","inputs":[]},{"type":"error","name":"NotInitializing","inputs":[]}],"bytecode":{"object":"0x608060405234801561001057600080fd5b5061035a806100206000396000f3fe608060405234801561001057600080fd5b50600436106100575760003560e01c8063165c4a161461005c5780633ef5e44514610081578063771602f7146100945780638129fc1c146100a7578063f88e9fbf146100b1575b600080fd5b61006f61006a36600461028d565b6100c4565b60405190815260200160405180910390f35b61006f61008f36600461028d565b6100d9565b61006f6100a236600461028d565b6100e5565b6100af6100f1565b005b61006f6100bf36600461028d565b61022d565b60006100d082846102c5565b90505b92915050565b60006100d082846102dc565b60006100d082846102ef565b7ff0c57e16840df040f15088dc2f81fe391c3923bec73e23a9662efc9c229c6a008054600160401b810460ff16159067ffffffffffffffff166000811580156101375750825b905060008267ffffffffffffffff1660011480156101545750303b155b905081158015610162575080155b156101805760405163f92ee8a960e01b815260040160405180910390fd5b845467ffffffffffffffff1916600117855583156101aa57845460ff60401b1916600160401b1785555b60405162a98ac781527fc7f505b2f371ae2175ee4913f4499e1f2633a7b5936321eed1cdaeb6115181d29060200160405180910390a1831561022657845460ff60401b19168555604051600181527fc7f505b2f371ae2175ee4913f4499e1f2633a7b5936321eed1cdaeb6115181d29060200160405180910390a15b5050505050565b6000816000036102835760405162461bcd60e51b815260206004820152601c60248201527f43616c63756c61746f723a206469766973696f6e206279207a65726f00000000604482015260640160405180910390fd5b6100d08284610302565b600080604083850312156102a057600080fd5b50508035926020909101359150565b634e487b7160e01b600052601160045260246000fd5b80820281158282048414176100d3576100d36102af565b818103818111156100d3576100d36102af565b808201808211156100d3576100d36102af565b60008261031f57634e487b7160e01b600052601260045260246000fd5b50049056fea2646970667358221220ab56467cac6eadd21fb4fd5463825f8ea823e7eed497f4999545d19ee220205d64736f6c63430008140033","linkReferences":{}},"methodIdentifiers":{"add(uint256,uint256)":"771602f7","divide(uint256,uint256)":"f88e9fbf","initialize()":"8129fc1c","multiply(uint256,uint256)":"165c4a16","subtract(uint256,uint256)":"3ef5e445"},"id":32}